{
  "contractName": "AssetRecord",
  "abi": [
    {
      "inputs": [],
      "payable": false,
      "stateMutability": "nonpayable",
      "type": "constructor"
    },
    {
      "anonymous": false,
      "inputs": [
        {
          "indexed": false,
          "name": "assetId",
          "type": "uint8"
        },
        {
          "indexed": false,
          "name": "assetName",
          "type": "string"
        },
        {
          "indexed": false,
          "name": "ownedBy",
          "type": "string"
        },
        {
          "indexed": false,
          "name": "category",
          "type": "uint8"
        }
      ],
      "name": "AssetCreated",
      "type": "event"
    },
    {
      "anonymous": false,
      "inputs": [
        {
          "indexed": false,
          "name": "assetId",
          "type": "uint8"
        },
        {
          "indexed": false,
          "name": "owner",
          "type": "string"
        },
        {
          "indexed": false,
          "name": "newObwer",
          "type": "string"
        },
        {
          "indexed": false,
          "name": "category",
          "type": "uint8"
        }
      ],
      "name": "AssetOwnerChnaged",
      "type": "event"
    },
    {
      "anonymous": false,
      "inputs": [
        {
          "indexed": false,
          "name": "assetId",
          "type": "uint8"
        },
        {
          "indexed": false,
          "name": "owner",
          "type": "string"
        },
        {
          "indexed": false,
          "name": "category",
          "type": "uint8"
        }
      ],
      "name": "AssetUnsold",
      "type": "event"
    },
    {
      "constant": false,
      "inputs": [
        {
          "name": "_assetName",
          "type": "string"
        },
        {
          "name": "_ownedBy",
          "type": "string"
        }
      ],
      "name": "createAsset",
      "outputs": [
        {
          "name": "_assetID",
          "type": "uint8"
        }
      ],
      "payable": true,
      "stateMutability": "payable",
      "type": "function"
    },
    {
      "constant": false,
      "inputs": [
        {
          "name": "_assetId",
          "type": "uint8"
        },
        {
          "name": "_newOwner",
          "type": "string"
        }
      ],
      "name": "setOwner",
      "outputs": [
        {
          "name": "_success",
          "type": "bool"
        }
      ],
      "payable": true,
      "stateMutability": "payable",
      "type": "function"
    },
    {
      "constant": false,
      "inputs": [
        {
          "name": "_assetId",
          "type": "uint8"
        }
      ],
      "name": "setAssetUnsold",
      "outputs": [
        {
          "name": "_success",
          "type": "bool"
        }
      ],
      "payable": true,
      "stateMutability": "payable",
      "type": "function"
    },
    {
      "constant": true,
      "inputs": [],
      "name": "getAssetID",
      "outputs": [
        {
          "name": "_assetId",
          "type": "uint8"
        }
      ],
      "payable": false,
      "stateMutability": "view",
      "type": "function"
    },
    {
      "constant": true,
      "inputs": [
        {
          "name": "_assetId",
          "type": "uint8"
        }
      ],
      "name": "getAssetName",
      "outputs": [
        {
          "name": "_commaSeparatedAsset",
          "type": "string"
        }
      ],
      "payable": false,
      "stateMutability": "view",
      "type": "function"
    },
    {
      "constant": true,
      "inputs": [
        {
          "name": "_assetId",
          "type": "uint8"
        }
      ],
      "name": "getOwner",
      "outputs": [
        {
          "name": "_ownedBy",
          "type": "string"
        }
      ],
      "payable": false,
      "stateMutability": "view",
      "type": "function"
    }
  ],
  "bytecode": "0x608060405234801561001057600080fd5b50610a09806100206000396000f3006080604052600436106100775763ffffffff7c0100000000000000000000000000000000000000000000000000000000600035041663077ae713811461007c578063696b5fb71461009e57806383e3bbc6146100c9578063a2a55b681461011d578063bc27f75e146101a7578063eb28fd9114610237575b600080fd5b61008a60ff60043516610252565b604080519115158252519081900360200190f35b3480156100aa57600080fd5b506100b361039c565b6040805160ff9092168252519081900360200190f35b60408051602060046024803582810135601f810185900485028601850190965285855261008a95833560ff169536956044949193909101919081908401838280828437509497506103a69650505050505050565b6040805160206004803580820135601f81018490048402850184019095528484526100b394369492936024939284019190819084018382808284375050604080516020601f89358b018035918201839004830284018301909452808352979a9998810197919650918201945092508291508401838280828437509497506105829650505050505050565b3480156101b357600080fd5b506101c260ff60043516610778565b6040805160208082528351818301528351919283929083019185019080838360005b838110156101fc5781810151838201526020016101e4565b50505050905090810190601f1680156102295780820380516001836020036101000a031916815260200191505b509250505060405180910390f35b34801561024357600080fd5b506101c260ff6004351661087b565b60ff8116600090815260016020819052604082208101548391600290821615610100026000190190911604151561028857600080fd5b60005460ff908116908416118015906102a3575060ff831615155b15156102ae57600080fd5b60ff8316600081815260016020818152604092839020600381018054600260ff1990911681179091558451958652938501849052606091850182815290840180549384161561010002600019019093168490049185018290527f8da8e79df4cda6de023bc655b4b950d538c285518ba576e6ce77975057921e5c948894929091906080830190859080156103835780601f1061035857610100808354040283529160200191610383565b820191906000526020600020905b81548152906001019060200180831161036657829003601f168201915b505094505050505060405180910390a150600192915050565b60005460ff165b90565b60ff821660009081526001602081905260408220810154849160029082161561010002600019019091160415156103dc57600080fd5b60005460ff908116908516118015906103f7575060ff841615155b151561040257600080fd5b60ff84166000908152600160209081526040909120845161042b92600290920191860190610945565b5060ff841660008181526001602081815260409283902060038101805460ff19168417905583519485526060850183905260809185018281526002918201805460001961010082881615020116929092049286018390527f43c694543f58c1e42b13fc9bd1f1db3f66e558e3fbeec29ad0bbf2afd85dcded958a9592948a94909391929183019060a0840190879080156105065780601f106104db57610100808354040283529160200191610506565b820191906000526020600020905b8154815290600101906020018083116104e957829003601f168201915b5050838103825285518152855160209182019187019080838360005b8381101561053a578181015183820152602001610522565b50505050905090810190601f1680156105675780820380516001836020036101000a031916815260200191505b50965050505050505060405180910390a15060019392505050565b6000808052600160208190527fa6eef7e35abe7026729641147f7915573c7e97b47efa546f5f6e3230263bcb4a548291600290821615610100026000190190911604156105ce57600080fd5b506000805460ff808216600190810191821660ff199384168117855580855260208281526040909520805490941617835586519193610614939091019190870190610945565b5060ff81166000908152600160209081526040909120845161063e92600290920191860190610945565b5060ff81166000818152600160209081526040808320600301805460ff19169055805193845260608401839052608084830181815289519186019190915288517f5b7e7ac58d79704a6264174f12fe6223b5d9bdb9a6f5cc74a804f07be475b30d9587958b958b95919492939184019160a0850191880190808383895b838110156106d35781810151838201526020016106bb565b50505050905090810190601f1680156107005780820380516001836020036101000a031916815260200191505b50838103825285518152855160209182019187019080838360005b8381101561073357818101518382015260200161071b565b50505050905090810190601f1680156107605780820380516001836020036101000a031916815260200191505b50965050505050505060405180910390a19392505050565b60ff8116600090815260016020819052604090912081015460609183916002918116156101000260001901160415156107b057600080fd5b60005460ff908116908416118015906107cb575060ff831615155b15156107d657600080fd5b60ff8316600090815260016020818152604092839020820180548451600294821615610100026000190190911693909304601f810183900483028401830190945283835291929083018282801561086e5780601f106108435761010080835404028352916020019161086e565b820191906000526020600020905b81548152906001019060200180831161085157829003601f168201915b5050505050915050919050565b60ff8116600090815260016020819052604090912081015460609183916002918116156101000260001901160415156108b357600080fd5b60005460ff908116908416118015906108ce575060ff831615155b15156108d957600080fd5b60ff83166000908152600160208181526040928390206002908101805485519481161561010002600019011691909104601f810183900483028401830190945283835291929083018282801561086e5780601f106108435761010080835404028352916020019161086e565b828054600181600116156101000203166002900490600052602060002090601f016020900481019282601f1061098657805160ff19168380011785556109b3565b828001600101855582156109b3579182015b828111156109b3578251825591602001919060010190610998565b506109bf9291506109c3565b5090565b6103a391905b808211156109bf57600081556001016109c95600a165627a7a72305820070a713b3c7b5c3d474a99da9dc099f293d7bfb4bcbd5887b3d40b89f4fe78f00029",
  "source": "pragma solidity ^0.4.22;\n\ncontract AssetRecord {\n\n    enum AssetCategory {Owned, Earned, Unsold}\n    \n    struct Asset {\n        uint8 assetId;\n        string assetName;\n        string ownedBy;\n        AssetCategory category;\n    }\n\n    uint8 id;\n    mapping (uint8 => Asset) assets;\n\n    //Events\n    event AssetCreated(uint8 assetId, string assetName, string ownedBy, AssetCategory category);\n    event AssetOwnerChnaged(uint8 assetId, string owner, string newObwer, AssetCategory category);\n    event AssetUnsold(uint8 assetId, string owner, AssetCategory category);\n\n    constructor () public {\n\n    }\n    \n    modifier validAsset(uint8 _assetId) {\n        require(bytes(assets[_assetId].assetName).length != 0);\n        _;\n    }\n\n    function createAsset (string _assetName, string _ownedBy) public payable returns (uint8 _assetID) {\n        require(bytes(assets[_assetId].assetName).length == 0);\n        uint8 _assetId = ++id;\n        assets[_assetId].assetId = _assetId;\n        assets[_assetId].assetName = _assetName;\n        assets[_assetId].ownedBy = _ownedBy;//owners email;\n        assets[_assetId].category = AssetCategory.Owned;\n        emit AssetCreated(_assetId, _assetName, _ownedBy, AssetCategory.Owned);\n        return _assetId;\n    }\n\n    function setOwner(uint8 _assetId, string _newOwner) validAsset(_assetId) public payable returns (bool _success) {\n        require(_assetId <= id && _assetId != 0);\n        assets[_assetId].ownedBy = _newOwner;\n        assets[_assetId].category = AssetCategory.Earned;\n        emit AssetOwnerChnaged(_assetId, assets[_assetId].ownedBy, _newOwner, AssetCategory.Earned);\n        return true;\n    }\n\n    function setAssetUnsold(uint8 _assetId) validAsset(_assetId) public payable returns (bool _success) {\n        require(_assetId <= id && _assetId != 0);\n        assets[_assetId].category = AssetCategory.Unsold;\n        emit AssetUnsold(_assetId, assets[_assetId].ownedBy, AssetCategory.Unsold);\n        return true;\n    }\n\n    function getAssetID () public view returns (uint8 _assetId){\n        return id;\n    }\n\n    function getAssetName (uint8 _assetId) validAsset(_assetId) public view returns (string _commaSeparatedAsset){\n        require(_assetId <= id && _assetId != 0);\n        return assets[_assetId].assetName;\n    }\n\n    function getOwner(uint8 _assetId) validAsset(_assetId) public view returns (string _ownedBy) {\n        require(_assetId <= id && _assetId != 0);\n        return assets[_assetId].ownedBy;\n    }\n}",
  "sourcePath": "/Volumes/Backup/Backup/MyProject/Blockchain/PlaceBid/contracts/AssetRecord.sol",
  "compiler": {
    "name": "solc",
    "version": "0.4.23+commit.124ca40d.Emscripten.clang"
  },
  "schemaVersion": "2.0.0",
  "updatedAt": "2018-09-11T17:13:56.515Z"
}