{
  "contractName": "AuctionRecord",
  "abi": [
    {
      "inputs": [],
      "payable": false,
      "stateMutability": "nonpayable",
      "type": "constructor"
    },
    {
      "constant": false,
      "inputs": [
        {
          "name": "_assetId",
          "type": "uint8"
        },
        {
          "name": "_assetName",
          "type": "string"
        },
        {
          "name": "_assetOwner",
          "type": "string"
        },
        {
          "name": "_startPrice",
          "type": "uint8"
        },
        {
          "name": "_auctionExpiry",
          "type": "uint256"
        }
      ],
      "name": "createAuction",
      "outputs": [
        {
          "name": "_auctionID",
          "type": "uint8"
        }
      ],
      "payable": true,
      "stateMutability": "payable",
      "type": "function"
    },
    {
      "constant": false,
      "inputs": [
        {
          "name": "_auctionId",
          "type": "uint8"
        },
        {
          "name": "_bid",
          "type": "uint8"
        },
        {
          "name": "_bidder",
          "type": "string"
        }
      ],
      "name": "placeBid",
      "outputs": [
        {
          "name": "_bidPlaced",
          "type": "bool"
        }
      ],
      "payable": true,
      "stateMutability": "payable",
      "type": "function"
    },
    {
      "constant": true,
      "inputs": [],
      "name": "getAuctionID",
      "outputs": [
        {
          "name": "_auctionId",
          "type": "uint8"
        }
      ],
      "payable": false,
      "stateMutability": "view",
      "type": "function"
    },
    {
      "constant": true,
      "inputs": [],
      "name": "getAssetID",
      "outputs": [
        {
          "name": "_auctionId",
          "type": "uint8"
        }
      ],
      "payable": false,
      "stateMutability": "view",
      "type": "function"
    },
    {
      "constant": true,
      "inputs": [
        {
          "name": "_auctionId",
          "type": "uint8"
        }
      ],
      "name": "getOwner",
      "outputs": [
        {
          "name": "_assetOwner",
          "type": "string"
        }
      ],
      "payable": false,
      "stateMutability": "view",
      "type": "function"
    },
    {
      "constant": true,
      "inputs": [
        {
          "name": "_auctionId",
          "type": "uint8"
        }
      ],
      "name": "getAsset",
      "outputs": [
        {
          "name": "_assetName",
          "type": "string"
        }
      ],
      "payable": false,
      "stateMutability": "view",
      "type": "function"
    },
    {
      "constant": true,
      "inputs": [
        {
          "name": "_auctionId",
          "type": "uint8"
        }
      ],
      "name": "getCurrentBid",
      "outputs": [
        {
          "name": "_currentBid",
          "type": "uint8"
        }
      ],
      "payable": false,
      "stateMutability": "view",
      "type": "function"
    },
    {
      "constant": true,
      "inputs": [
        {
          "name": "_auctionId",
          "type": "uint8"
        }
      ],
      "name": "getCurrentBidder",
      "outputs": [
        {
          "name": "_currentBidder",
          "type": "string"
        }
      ],
      "payable": false,
      "stateMutability": "view",
      "type": "function"
    },
    {
      "constant": true,
      "inputs": [
        {
          "name": "_auctionId",
          "type": "uint8"
        }
      ],
      "name": "getTotalBids",
      "outputs": [
        {
          "name": "_bids",
          "type": "uint256"
        }
      ],
      "payable": false,
      "stateMutability": "view",
      "type": "function"
    },
    {
      "constant": true,
      "inputs": [
        {
          "name": "_auctionId",
          "type": "uint8"
        },
        {
          "name": "index",
          "type": "uint8"
        }
      ],
      "name": "getBidderAtIndex",
      "outputs": [
        {
          "name": "_bidder",
          "type": "string"
        }
      ],
      "payable": false,
      "stateMutability": "view",
      "type": "function"
    },
    {
      "constant": true,
      "inputs": [
        {
          "name": "_auctionId",
          "type": "uint8"
        },
        {
          "name": "index",
          "type": "uint8"
        }
      ],
      "name": "getBidAtIndex",
      "outputs": [
        {
          "name": "_bid",
          "type": "uint8"
        }
      ],
      "payable": false,
      "stateMutability": "view",
      "type": "function"
    },
    {
      "constant": true,
      "inputs": [
        {
          "name": "_auctionId",
          "type": "uint8"
        }
      ],
      "name": "getAuctionStatus",
      "outputs": [
        {
          "name": "_auctionStatus",
          "type": "uint8"
        }
      ],
      "payable": false,
      "stateMutability": "view",
      "type": "function"
    },
    {
      "constant": true,
      "inputs": [
        {
          "name": "_auctionId",
          "type": "uint8"
        }
      ],
      "name": "getAuctionResult",
      "outputs": [
        {
          "name": "_auctionResult",
          "type": "uint8"
        }
      ],
      "payable": false,
      "stateMutability": "view",
      "type": "function"
    }
  ],
  "bytecode": "0x608060405234801561001057600080fd5b50610c7b806100206000396000f3006080604052600436106100c45763ffffffff7c0100000000000000000000000000000000000000000000000000000000600035041663164d7f2481146100c95780631d107473146100f65780633250598814610135578063407ca92b146101c55780635765dc31146101e0578063696b5fb71461021757806385ba8e051461022c578063ad26ea7414610247578063c54ab8ce14610272578063db7739a8146102e2578063de6207d9146102f7578063eb28fd9114610318578063eb2c3f5a14610333575b600080fd5b3480156100d557600080fd5b506100e460ff600435166103d0565b60408051918252519081900360200190f35b34801561010257600080fd5b5061011160ff60043516610420565b6040518082600181111561012157fe5b60ff16815260200191505060405180910390f35b34801561014157600080fd5b5061015060ff60043516610473565b6040805160208082528351818301528351919283929083019185019080838360005b8381101561018a578181015183820152602001610172565b50505050905090810190601f1680156101b75780820380516001836020036101000a031916815260200191505b509250505060405180910390f35b3480156101d157600080fd5b5061015060ff6004351661054f565b3480156101ec57600080fd5b5061020160ff600435811690602435166105f5565b6040805160ff9092168252519081900360200190f35b34801561022357600080fd5b50610201610699565b34801561023857600080fd5b5061020160ff600435166106cb565b34801561025357600080fd5b5061026260ff6004351661071e565b6040518082600281111561012157fe5b604080516020600460443581810135601f81018490048402850184019095528484526102ce94823560ff908116956024803590921695369594606494929301919081908401838280828437509497506107769650505050505050565b604080519115158252519081900360200190f35b3480156102ee57600080fd5b506102016108bb565b34801561030357600080fd5b5061015060ff600435811690602435166108c4565b34801561032457600080fd5b5061015060ff600435166109ec565b60408051602060046024803582810135601f810185900485028601850190965285855261020195833560ff1695369560449491939091019190819084018382808284375050604080516020601f89358b018035918201839004830284018301909452808352979a9998810197919650918201945092508291508401838280828437509497505050833560ff16945050506020909101359050610a92565b60ff8116600090815260016020819052604082208101548391600290821615610100026000190190911604151561040657600080fd5b505060ff1660009081526001602052604090206009015490565b60ff8116600090815260016020819052604082208101548391600290821615610100026000190190911604151561045657600080fd5b505060ff9081166000908152600160205260409020600a01541690565b60ff8116600090815260016020819052604090912081015460609183916002918116156101000260001901160415156104ab57600080fd5b60ff83166000908152600160208181526040928390206002908101805485519481161561010002600019011691909104601f81018390048302840183019094528383529192908301828280156105425780601f1061051757610100808354040283529160200191610542565b820191906000526020600020905b81548152906001019060200180831161052557829003601f168201915b5050505050915050919050565b60ff81166000908152600160208190526040909120810154606091839160029181161561010002600019011604151561058757600080fd5b60ff831660009081526001602081815260409283902060080180548451600294821615610100026000190190911693909304601f81018390048302840183019094528383529192908301828280156105425780601f1061051757610100808354040283529160200191610542565b60ff8216600090815260016020819052604082208101548491600290821615610100026000190190911604151561062b57600080fd5b60ff808516600090815260016020526040902060090154859185919082161061065357600080fd5b60ff808716600090815260016020526040902060090180549091871690811061067857fe5b600091825260209091206002909102016001015460ff169695505050505050565b6000805260016020527fa6eef7e35abe7026729641147f7915573c7e97b47efa546f5f6e3230263bcb4c5460ff165b90565b60ff8116600090815260016020819052604082208101548391600290821615610100026000190190911604151561070157600080fd5b505060ff9081166000908152600160205260409020600701541690565b60ff8116600090815260016020819052604082208101548391600290821615610100026000190190911604151561075457600080fd5b505060ff9081166000908152600160205260409020600a015461010090041690565b60ff831660009081526001602081905260408220810154859160029082161561010002600019019091160415156107ac57600080fd5b60ff851660009081526001602052604090206006015485904211156107d057600080fd5b60ff808716600090815260016020526040902060070154879187918116908216116107fa57600080fd5b60ff888116600090815260016020908152604090912060078101805460ff1916938b169390931790925587516108369260080191890190610bb7565b5060ff808916600090815260016020818152604080842081518083019092528b8252948c16818301526009909401805492830180825590845292819020845180519495946002909402909101926108909284920190610bb7565b50602091909101516001918201805460ff191660ff9092169190911790559998505050505050505050565b60005460ff1690565b60ff8216600090815260016020819052604090912081015460609184916002918116156101000260001901160415156108fc57600080fd5b60ff808516600090815260016020526040902060090154859185919082161061092457600080fd5b60ff808716600090815260016020526040902060090180549091871690811061094957fe5b60009182526020918290206002918202018054604080516001831615610100026000190190921693909304601f8101859004850282018501909352828152929091908301828280156109dc5780601f106109b1576101008083540402835291602001916109dc565b820191906000526020600020905b8154815290600101906020018083116109bf57829003601f168201915b5050505050935050505092915050565b60ff811660009081526001602081905260409091208101546060918391600291811615610100026000190116041515610a2457600080fd5b60ff831660009081526001602081815260409283902060040180548451600294821615610100026000190190911693909304601f81018390048302840183019094528383529192908301828280156105425780601f1061051757610100808354040283529160200191610542565b6000808052600160208190527fa6eef7e35abe7026729641147f7915573c7e97b47efa546f5f6e3230263bcb4a54829160029082161561010002600019019091160415610ade57600080fd5b506000805460ff19808216600160ff9384168101808516928317865582865260209182526040909520805484169092178255600382018054909316938b16939093179091558751610b3792600290920191890190610bb7565b5060ff811660009081526001602090815260409091208651610b6192600490920191880190610bb7565b5060ff818116600090815260016020526040902060058101805460ff199081169790931696909617909555603c9390930242016006850155600a909301805461ff00191661020017909216909155509392505050565b828054600181600116156101000203166002900490600052602060002090601f016020900481019282601f10610bf857805160ff1916838001178555610c25565b82800160010185558215610c25579182015b82811115610c25578251825591602001919060010190610c0a565b50610c31929150610c35565b5090565b6106c891905b80821115610c315760008155600101610c3b5600a165627a7a7230582019a38e95cbe9cb8f00e9f665670281213a2a13ad9221599b04c9e0597b5d6b610029",
  "source": "pragma solidity ^0.4.22;\n\ncontract AuctionRecord {\n\n    enum AuctionStatus {Active, End}\n    enum AuctionResult {Sold, Unsold, Pending}\n\n    struct Bid {\n        string bidder;\n        uint8 bid;\n    }\n\n    struct Auction {\n        uint8 auctionId;\n        string auctionHash;\n\n        string assetName;\n        uint8 assetId;\n        string assetOwner; //userEmail\n\n        uint8 startPrice;\n        uint256 auctionExpiry;\n        \n        uint8 currentBid; //in amount\n        string currentBidder; //Owner and Biider will not be same\n\n        Bid[] bids;\n\n        AuctionStatus status;\n        AuctionResult result;\n    }\n    \n    uint8 id;\n    mapping (uint8 => Auction) auctions;\n    \n    constructor () public {\n        \n    }\n    \n    modifier validAuction(uint8 _auctionId) {\n        require(bytes(auctions[_auctionId].auctionHash).length != 0);\n        _;\n    }\n    \n    modifier auctionActive (uint8 _auctionId) {\n        require (now <= auctions[_auctionId].auctionExpiry );\n        _;\n    }\n    \n    modifier highestBid (uint8 _auctionId, uint8 _bid) {\n        require (_bid > auctions[_auctionId].currentBid);\n        _;\n    }\n    \n    modifier validIndex (uint8 _auctionId, uint8 index) {\n        require (index < auctions[_auctionId].bids.length);\n        _;\n    }\n    \n    function createAuction ( uint8 _assetId, string _assetName, string _assetOwner, uint8 _startPrice , uint256 _auctionExpiry) public payable returns (uint8 _auctionID) {\n        require(bytes(auctions[_auctionId].auctionHash).length == 0);\n        uint8 _auctionId = ++id;\n        auctions[_auctionId].auctionId = _auctionId;\n        auctions[_auctionId].assetId = _assetId;\n        auctions[_auctionId].assetName = _assetName;\n        auctions[_auctionId].assetOwner = _assetOwner;//owners email;\n        auctions[_auctionId].startPrice = _startPrice;\n        auctions[_auctionId].auctionExpiry = now + _auctionExpiry * 60;//in mins;\n        auctions[_auctionId].result = AuctionResult.Pending;\n        auctions[_auctionId].status = AuctionStatus.Active;\n        return _auctionId;\n    }\n    \n    function placeBid (uint8 _auctionId, uint8 _bid, string _bidder) validAuction(_auctionId) auctionActive(_auctionId) highestBid(_auctionId, _bid) public payable returns (bool _bidPlaced){\n        auctions[_auctionId].currentBid = _bid;\n        auctions[_auctionId].currentBidder = _bidder;\n        auctions[_auctionId].bids.push(Bid(_bidder, _bid));\n        return true;\n    }\n    \n    function getAuctionID () public view returns (uint8 _auctionId){\n        return id;\n    }\n\n    function getAssetID () public view returns (uint8 _auctionId){\n        return auctions[_auctionId].assetId;\n    }\n\n    function getOwner (uint8 _auctionId) validAuction(_auctionId) public view returns (string _assetOwner) {\n        return auctions[_auctionId].assetOwner;\n    }\n    \n    function getAsset (uint8 _auctionId) validAuction(_auctionId) public view returns (string _assetName) {\n        return auctions[_auctionId].assetName;\n    }\n    \n    function getCurrentBid (uint8 _auctionId) validAuction(_auctionId) public view returns (uint8 _currentBid) {\n        return auctions[_auctionId].currentBid;\n    }\n    \n    function getCurrentBidder (uint8 _auctionId) validAuction(_auctionId) public view returns (string _currentBidder) {\n        return auctions[_auctionId].currentBidder;\n    }\n    \n    function getTotalBids (uint8 _auctionId) validAuction(_auctionId) public view returns (uint _bids) {\n        return auctions[_auctionId].bids.length;\n    }\n    \n    function getBidderAtIndex(uint8 _auctionId, uint8 index) validAuction (_auctionId) validIndex (_auctionId, index) public view returns (string _bidder) {\n        return auctions[_auctionId].bids[index].bidder;\n    }\n    \n    function getBidAtIndex(uint8 _auctionId, uint8 index) validAuction (_auctionId) validIndex (_auctionId, index) public view returns (uint8 _bid) {\n        return auctions[_auctionId].bids[index].bid;\n    }\n    \n    function getAuctionStatus (uint8 _auctionId) validAuction (_auctionId) public view returns (AuctionStatus _auctionStatus) {\n        return auctions[_auctionId].status;\n    }\n    \n    function getAuctionResult (uint8 _auctionId) validAuction (_auctionId) public view returns (AuctionResult _auctionResult) {\n        return auctions[_auctionId].result;\n    }\n}",
  "sourcePath": "/Volumes/Backup/Backup/MyProject/Blockchain/PlaceBid/contracts/AuctionRecord.sol",
  "compiler": {
    "name": "solc",
    "version": "0.4.23+commit.124ca40d.Emscripten.clang"
  },
  "schemaVersion": "2.0.0",
  "updatedAt": "2018-09-11T17:13:56.529Z"
}