{
  "contractName": "UserRecord",
  "abi": [
    {
      "inputs": [],
      "payable": false,
      "stateMutability": "nonpayable",
      "type": "constructor"
    },
    {
      "constant": false,
      "inputs": [
        {
          "name": "_name",
          "type": "string"
        },
        {
          "name": "_userEmail",
          "type": "string"
        },
        {
          "name": "_password",
          "type": "string"
        }
      ],
      "name": "createUser",
      "outputs": [
        {
          "name": "_creation",
          "type": "bool"
        }
      ],
      "payable": true,
      "stateMutability": "payable",
      "type": "function"
    },
    {
      "constant": false,
      "inputs": [
        {
          "name": "_userEmail",
          "type": "string"
        },
        {
          "name": "_assetId",
          "type": "uint8"
        }
      ],
      "name": "addAsset",
      "outputs": [
        {
          "name": "_success",
          "type": "bool"
        }
      ],
      "payable": true,
      "stateMutability": "payable",
      "type": "function"
    },
    {
      "constant": false,
      "inputs": [
        {
          "name": "_userEmail",
          "type": "string"
        },
        {
          "name": "_balance",
          "type": "uint8"
        }
      ],
      "name": "addBalance",
      "outputs": [
        {
          "name": "_success",
          "type": "bool"
        }
      ],
      "payable": true,
      "stateMutability": "payable",
      "type": "function"
    },
    {
      "constant": false,
      "inputs": [
        {
          "name": "_userEmail",
          "type": "string"
        },
        {
          "name": "_earnedBalance",
          "type": "uint8"
        }
      ],
      "name": "addEarnedBalance",
      "outputs": [
        {
          "name": "_success",
          "type": "bool"
        }
      ],
      "payable": true,
      "stateMutability": "payable",
      "type": "function"
    },
    {
      "constant": true,
      "inputs": [
        {
          "name": "_userEmail",
          "type": "string"
        }
      ],
      "name": "getAssets",
      "outputs": [
        {
          "name": "_assets",
          "type": "uint8[]"
        }
      ],
      "payable": false,
      "stateMutability": "view",
      "type": "function"
    },
    {
      "constant": true,
      "inputs": [
        {
          "name": "_userEmail",
          "type": "string"
        }
      ],
      "name": "getUserName",
      "outputs": [
        {
          "name": "_name",
          "type": "string"
        }
      ],
      "payable": false,
      "stateMutability": "view",
      "type": "function"
    },
    {
      "constant": true,
      "inputs": [
        {
          "name": "_userEmail",
          "type": "string"
        }
      ],
      "name": "getUserPassword",
      "outputs": [
        {
          "name": "_name",
          "type": "string"
        }
      ],
      "payable": false,
      "stateMutability": "view",
      "type": "function"
    },
    {
      "constant": true,
      "inputs": [
        {
          "name": "_userEmail",
          "type": "string"
        }
      ],
      "name": "getBalance",
      "outputs": [
        {
          "name": "_totalBalance",
          "type": "uint8"
        }
      ],
      "payable": false,
      "stateMutability": "view",
      "type": "function"
    },
    {
      "constant": true,
      "inputs": [
        {
          "name": "_userEmail",
          "type": "string"
        },
        {
          "name": "_password",
          "type": "string"
        }
      ],
      "name": "isValidPassword",
      "outputs": [
        {
          "name": "_valid",
          "type": "bool"
        }
      ],
      "payable": false,
      "stateMutability": "view",
      "type": "function"
    }
  ],
  "bytecode": "0x608060405234801561001057600080fd5b506001805460ff1916600217905561151e8061002d6000396000f3006080604052600436106100985763ffffffff7c010000000000000000000000000000000000000000000000000000000060003504166302066ca7811461009d57806329b065d9146101025780633a51d246146101ab57806359ae069b1461021a578063621bbe61146102e25780637228c6e014610333578063761bb2ee146104015780637a9a4e9e14610498578063c9ae6b01146104e9575b600080fd5b6040805160206004803580820135601f81018490048402850184019095528484526100ee9436949293602493928401919081908401838280828437509497505050923560ff16935061054292505050565b604080519115158252519081900360200190f35b34801561010e57600080fd5b506040805160206004803580820135601f810184900484028501840190955284845261015b94369492936024939284019190819084018382808284375094975061066b9650505050505050565b60408051602080825283518183015283519192839290830191858101910280838360005b8381101561019757818101518382015260200161017f565b505050509050019250505060405180910390f35b3480156101b757600080fd5b506040805160206004803580820135601f81018490048402850184019095528484526102049436949293602493928401919081908401838280828437509497506107c89650505050505050565b6040805160ff9092168252519081900360200190f35b6040805160206004803580820135601f81018490048402850184019095528484526100ee94369492936024939284019190819084018382808284375050604080516020601f89358b018035918201839004830284018301909452808352979a99988101979196509182019450925082915084018382808284375050604080516020601f89358b018035918201839004830284018301909452808352979a9998810197919650918201945092508291508401838280828437509497506109449650505050505050565b6040805160206004803580820135601f81018490048402850184019095528484526100ee9436949293602493928401919081908401838280828437509497505050923560ff169350610bfb92505050565b34801561033f57600080fd5b506040805160206004803580820135601f810184900484028501840190955284845261038c943694929360249392840191908190840183828082843750949750610d0b9650505050505050565b6040805160208082528351818301528351919283929083019185019080838360005b838110156103c65781810151838201526020016103ae565b50505050905090810190601f1680156103f35780820380516001836020036101000a031916815260200191505b509250505060405180910390f35b34801561040d57600080fd5b506040805160206004803580820135601f81018490048402850184019095528484526100ee94369492936024939284019190819084018382808284375050604080516020601f89358b018035918201839004830284018301909452808352979a999881019791965091820194509250829150840183828082843750949750610e839650505050505050565b6040805160206004803580820135601f81018490048402850184019095528484526100ee9436949293602493928401919081908401838280828437509497505050923560ff16935061101192505050565b3480156104f557600080fd5b506040805160206004803580820135601f810184900484028501840190955284845261038c94369492936024939284019190819084018382808284375094975061115f9650505050505050565b6000826000816040518082805190602001908083835b602083106105775780518252601f199092019160209182019101610558565b6001836020036101000a03801982511681845116808217855250505050505090500191505090815260200160405180910390206000018054600181600116156101000203166002900490506000141515156105d157600080fd5b600060ff8416116105e157600080fd5b6106606000856040518082805190602001908083835b602083106106165780518252601f1990920191602091820191016105f7565b6001836020036101000a038019825116818451168082178552505050505050905001915050908152602001604051809103902060030160019054906101000a900460ff16846112ac565b506001949350505050565b6060816000816040518082805190602001908083835b602083106106a05780518252601f199092019160209182019101610681565b6001836020036101000a03801982511681845116808217855250505050505090500191505090815260200160405180910390206000018054600181600116156101000203166002900490506000141515156106fa57600080fd5b6000836040518082805190602001908083835b6020831061072c5780518252601f19909201916020918201910161070d565b51815160209384036101000a6000190180199092169116179052920194855250604080519485900382018520600401805480840287018401909252818652935091508301828280156107bb57602002820191906000526020600020906000905b825461010083900a900460ff1681526020600192830181810494850194909303909202910180841161078c5790505b5050505050915050919050565b6000816000816040518082805190602001908083835b602083106107fd5780518252601f1990920191602091820191016107de565b6001836020036101000a038019825116818451168082178552505050505050905001915050908152602001604051809103902060000180546001816001161561010002031660029004905060001415151561085757600080fd5b61093d6000846040518082805190602001908083835b6020831061088c5780518252601f19909201916020918201910161086d565b51815160209384036101000a6000190180199092169116179052920194855250604051938490038101842060030154885160ff9091169460009450899350918291908401908083835b602083106108f45780518252601f1990920191602091820191016108d5565b6001836020036101000a038019825116818451168082178552505050505050905001915050908152602001604051809103902060030160019054906101000a900460ff166112ac565b9392505050565b600154835160009160ff16111561095a57600080fd5b600154835160ff909116111561096f57600080fd5b600154825160ff909116111561098457600080fd5b6000836040518082805190602001908083835b602083106109b65780518252601f199092019160209182019101610997565b6001836020036101000a03801982511681845116808217855250505050505090500191505090815260200160405180910390206000018054600181600116156101000203166002900490506000141515610a0f57600080fd5b836000846040518082805190602001908083835b60208310610a425780518252601f199092019160209182019101610a23565b51815160209384036101000a60001901801990921691161790529201948552506040519384900381019093208451610a839591949190910192509050611457565b50826000846040518082805190602001908083835b60208310610ab75780518252601f199092019160209182019101610a98565b6001836020036101000a03801982511681845116808217855250505050505090500191505090815260200160405180910390206001019080519060200190610b00929190611457565b50816000846040518082805190602001908083835b60208310610b345780518252601f199092019160209182019101610b15565b51815160209384036101000a60001901801990921691161790529201948552506040519384900381019093208451610b79956002909201949190910192509050611457565b5060646000846040518082805190602001908083835b60208310610bae5780518252601f199092019160209182019101610b8f565b51815160209384036101000a60001901801990921691161790529201948552506040519384900301909220600301805460ff191660ff949094169390931790925550600195945050505050565b6000826000816040518082805190602001908083835b60208310610c305780518252601f199092019160209182019101610c11565b6001836020036101000a0380198251168184511680821785525050505050509050019150509081526020016040518091039020600001805460018160011615610100020316600290049050600014151515610c8a57600080fd5b600060ff841611610c9a57600080fd5b6106606000856040518082805190602001908083835b60208310610ccf5780518252601f199092019160209182019101610cb0565b51815160209384036101000a600019018019909216911617905292019485525060405193849003019092206003015460ff1691508590506112ac565b6060816000816040518082805190602001908083835b60208310610d405780518252601f199092019160209182019101610d21565b6001836020036101000a0380198251168184511680821785525050505050509050019150509081526020016040518091039020600001805460018160011615610100020316600290049050600014151515610d9a57600080fd5b6000836040518082805190602001908083835b60208310610dcc5780518252601f199092019160209182019101610dad565b518151600019602094850361010090810a820192831692199390931691909117909252949092019687526040805197889003820188208054601f60026001831615909802909501169590950492830182900482028801820190528187529294509250508301828280156107bb5780601f10610e55576101008083540402835291602001916107bb565b820191906000526020600020905b815481529060010190602001808311610e63575093979650505050505050565b6000826000816040518082805190602001908083835b60208310610eb85780518252601f199092019160209182019101610e99565b6001836020036101000a0380198251168184511680821785525050505050509050019150509081526020016040518091039020600001805460018160011615610100020316600290049050600014151515610f1257600080fd5b6110096000856040518082805190602001908083835b60208310610f475780518252601f199092019160209182019101610f28565b518151600019602094850361010090810a8201928316921993909316919091179092529490920196875260408051978890038201882060029081018054601f600182161590980290950190941604948501829004820288018201905283875290945091925050830182828015610ffe5780601f10610fd357610100808354040283529160200191610ffe565b820191906000526020600020905b815481529060010190602001808311610fe157829003601f168201915b5050505050846112b6565b949350505050565b6000826000816040518082805190602001908083835b602083106110465780518252601f199092019160209182019101611027565b6001836020036101000a03801982511681845116808217855250505050505090500191505090815260200160405180910390206000018054600181600116156101000203166002900490506000141515156110a057600080fd5b600060ff8416116110b057600080fd5b6000846040518082805190602001908083835b602083106110e25780518252601f1990920191602091820191016110c3565b518151600019602094850361010090810a919091019182169119929092161790915293909101958652604051958690038101909520600401805460018181018355600092835291879020968104909601805460ff808c16601f90991690950a97880294909702199096169290921790945594505050505092915050565b6060816000816040518082805190602001908083835b602083106111945780518252601f199092019160209182019101611175565b6001836020036101000a03801982511681845116808217855250505050505090500191505090815260200160405180910390206000018054600181600116156101000203166002900490506000141515156111ee57600080fd5b6000836040518082805190602001908083835b602083106112205780518252601f199092019160209182019101611201565b518151600019602094850361010090810a8201928316921993909316919091179092529490920196875260408051978890038201882060029081018054601f6001821615909802909501909416049485018290048202880182019052838752909450919250508301828280156107bb5780601f10610e55576101008083540402835291602001916107bb565b8181015b92915050565b80518251600091146112ca575060006112b0565b816040516020018082805190602001908083835b602083106112fd5780518252601f1990920191602091820191016112de565b6001836020036101000a0380198251168184511680821785525050505050509050019150506040516020818303038152906040526040518082805190602001908083835b602083106113605780518252601f199092019160209182019101611341565b51815160209384036101000a60001901801990921691161790526040519190930181900381208851909550889450908301928392508401908083835b602083106113bb5780518252601f19909201916020918201910161139c565b6001836020036101000a0380198251168184511680821785525050505050509050019150506040516020818303038152906040526040518082805190602001908083835b6020831061141e5780518252601f1990920191602091820191016113ff565b6001836020036101000a0380198251168184511680821785525050505050509050019150506040518091039020600019161490506112b0565b828054600181600116156101000203166002900490600052602060002090601f016020900481019282601f1061149857805160ff19168380011785556114c5565b828001600101855582156114c5579182015b828111156114c55782518255916020019190600101906114aa565b506114d19291506114d5565b5090565b6114ef91905b808211156114d157600081556001016114db565b905600a165627a7a72305820814e2d82730cc09a2ac1f1464abb89274b3f7cc283c8fb5e18191d6a9cad30940029",
  "source": "pragma solidity ^0.4.22;\n\ncontract UserRecord {\n    \n    struct User{\n        string name;\n        string userEmail;\n        string password;\n        uint8 balance;\n        uint8 earnedBalance;\n        uint8 [] assets; //asset id\n    }\n\n    mapping (string => User) users;\n\n    uint8 stringLimit;\n\n    constructor ( ) public {\n        stringLimit = 2;\n    }\n    \n    modifier validUser(string _userEmail) {\n        require(bytes(users[_userEmail].name).length != 0);\n        _;\n    }\n\n    function createUser (string _name, string _userEmail, string _password) public payable returns (bool _creation) {\n\n        require(bytes(_name).length >= stringLimit);\n        require(bytes(_userEmail).length >= stringLimit);\n        require(bytes(_password).length >= stringLimit);\n        require(bytes(users[_userEmail].name).length == 0);\n\n        users[_userEmail].name = _name;\n        users[_userEmail].userEmail = _userEmail;\n        users[_userEmail].password = _password;\n        users[_userEmail].balance = 100;\n        return true;\n    }\n    \n    function addAsset (string _userEmail, uint8 _assetId) validUser(_userEmail) public payable returns (bool _success) {\n        require(_assetId > 0);\n        users[_userEmail].assets.push(_assetId);\n        return true;\n    }\n\n    function addBalance (string _userEmail, uint8 _balance) validUser(_userEmail) public payable returns (bool _success) {\n        require(_balance > 0);\n        add(users[_userEmail].balance, _balance);\n        return true;\n    }\n\n    function addEarnedBalance (string _userEmail, uint8 _earnedBalance) validUser(_userEmail) public payable returns (bool _success) {\n        require(_earnedBalance > 0);\n        add(users[_userEmail].earnedBalance, _earnedBalance);\n        return true;\n    }\n    \n    function getAssets (string _userEmail) validUser(_userEmail) public view returns (uint8[] _assets) {\n        return users[_userEmail].assets;\n    }\n\n    function getUserName (string _userEmail) validUser(_userEmail) public view returns (string _name) {\n        return users[_userEmail].name;\n    }\n\n    function getUserPassword (string _userEmail) validUser(_userEmail) public view returns (string _name) {\n        return users[_userEmail].password;\n    }\n\n    function getBalance (string _userEmail) validUser(_userEmail) public view returns (uint8 _totalBalance) {\n        return add(users[_userEmail].balance, users[_userEmail].earnedBalance);\n    }\n    \n    function isValidPassword (string _userEmail, string _password) validUser(_userEmail) public view returns (bool _valid) {\n        return hashCompareWithLengthCheck(users[_userEmail].password, _password);\n    }\n\n    function hashCompareWithLengthCheck(string a, string b) internal pure returns (bool equal) {\n        if(bytes(a).length != bytes(b).length) {\n            return false;\n        } \n        else {\n            return keccak256(abi.encodePacked(a)) == keccak256(abi.encodePacked(b));\n        }\n    }   \n\n    function add(uint8 _a, uint8 _b) internal pure returns(uint8){\n        return _a + _b;\n    } \n}",
  "sourcePath": "/Volumes/Backup/Backup/MyProject/Blockchain/PlaceBid/contracts/UserRecord.sol",
  "compiler": {
    "name": "solc",
    "version": "0.4.23+commit.124ca40d.Emscripten.clang"
  },
  "schemaVersion": "2.0.0",
  "updatedAt": "2018-09-11T17:13:56.523Z"
}